:100000006F00A061000000004A0100004E010000E6
:1000100000000000000000000000000000000000E0
:1000200000000000000000000000000000000000D0
:10003000E805000000000000EA05000000000000E4
:10004000EC050000EE050000F0050000F2050000E0
:10005000F4050000F6050000F8050000FA050000B0
:10006000FC050000FE05000000060000020600007E
:100070000406000006060000080600000A0600004C
:100080000C0600000E06000010060000120600001C
:10009000140600001606000018060000000000000C
:1000A000511126C022C206C4828282441244A24058
:1000B000310182802A86014593F6150091C232955E
:1000C00085810606F5F9828000000000634E050276
:1000D00063C305042E86AA857D5515C285466378BF
:1000E000B6006356C00006068606E36CB6FE014500
:1000F00063E4C500918D558D85820582F5FA828075
:100100008682C93F2E8582823305A04063D70500D1
:10011000B305B040C1B7B305B0408682653F330533
:10012000A0408282868263C70500634905005D376F
:100130002E858282B305B040E35B05FE3305A04007
:10014000513F3305B040828200007300203001A08F
:10015000EFF21FF511118545414502C002C202C4EC
:1001600002C602C802CA02CCEF00900585453705D9
:100170002000EF00D00699477C80F1473EC48A8575
:100180008D47371501403EC2192BE1679387076AF7
:100190003EC6B7070040375400403EC8B7070004CA
:1001A0003ECA6C00916713050440FC84E1231305EB
:1001B00004408545EF00A06B854513050440EF0022
:1001C00080697101DDB5EFF2BFEDB7570040AA8439
:1001D0002E84138707403A85B7050200EF000071AF
:1001E000B7570040138707407DF585453A85EF00F6
:1001F000E069B7070300850737570040BE85130540
:100200000740EF00406DB7070300375700408507F0
:1002100065D52286A68513050740EF00A06A09CCA4
:1002200037040300090437550040A2851305054033
:10023000EF00606A6DD929A8370407001304240869
:1002400037550040A28513050540EF00C0686DD901
:10025000A9BDEFF2FFE4AA8537550040130505401C
:1002600037040700B12D1304440837550040A28518
:10027000130505408D2575D90DBDEFF27FE2375589
:100280000040854513050540392D05B5EFF25FE1C6
:100290002A84AE841305E00481453537A2946314A3
:1002A0009400E13F19B505040345F4FF5D37C5BF70
:1002B000EFF21FDFB707002093868703982293870A
:1002C00087031367870098A201E598235D9B98A395
:1002D0009C23370500208545230EF5021305C50331
:1002E0007537E1B3EFF2DFDB2A8413054006EF0038
:1002F0002074B707002093878703137714009316A1
:1003000047009823370500208D453D9B558F98A3C6
:10031000131744009376070298231377F7FD558F40
:1003200098A31317440093760704982312041374B8
:1003300004081377F7FB558F98A398231377F707D3
:10034000598C80A394231307C5031305C50314A375
:10035000942334A3942393E6460094A3942314B3E4
:1003600098236D9B98A31D3789B3EFF27FD32A841E
:1003700011818D3F2285BD370DBBEFF27FD237044F
:100380000020130484031C2093E717001CA0F13FF6
:100390001C20F99B1CA011BBEFF29FD085678D89B3
:1003A000938747AAAE979C233E95136505F813756E
:1003B000F50F653FDDB9EFF2BFCE3284F13F082083
:1003C00011E1E5B10504553FDDBFEFF27FCD0545F5
:1003D000693F1545592DD1B9EFF29FCC953B3D456D
:1003E000692513053003FD3D1545412513053003EF
:1003F000D53D130540062D2D13053003E5351305B6
:1004000040063D2513052002F13D130540060D254C
:1004100013058002993F2145893F453F3145B1375A
:100420000545793559B1EFF2BFC70945CD29B92244
:10043000F1235D3737160000130686AA8145014572
:100440009D3F37160000130606AB85452145A537AD
:1004500001A0B71702409843B706FFFC611113676C
:10046000170098C3D843758FD8C39843B706F7FED3
:10047000FD16758F98C39843B706FCFFFD16758F60
:1004800098C3D843C176FD16758FD8C337079F0030
:1004900098C7984F1367070298CF371701408326F4
:1004A00007401306074093F6F6F02320D740832633
:1004B000074093E606082320D740094718CA02C020
:1004C00002C2984FB706014021661367170098CF04
:1004D000D842518FD8C29843C16637060200558F63
:1004E00098C3B716024009679C42F18F3EC282470B
:1004F00085073EC0924781E78247E397E7FEB7173B
:1005000002409C431397E7006358070685473EC2A5
:10051000124785476310F706B72702409843C17614
:10052000FD16719B98C398431367170098C3B717BC
:100530000240D843D8C3D843758FD8C3D843C166C7
:10054000558FD8C39843B7060001558F98C3984379
:1005500093166700E3DD06FED843B7160240719B91
:10056000D8C3D84313672700D8C32147DC42B18BD7
:10057000E39EE7FE2101828002C259BFEFF25FB223
:10058000371702405C43370400209146B18B1304B7
:1005900004016385D700A1466380D704B7376E0195
:1005A000938707601CC0B7160240DC420840918365
:1005B00013F7F700B707002093870700BA978C233B
:1005C000DC4293F5F50F93F707083357B50099E32D
:1005D00011362A8718C0D1BC5C43B777DC029387F9
:1005E00007C0C9B701A001A001A001A001A001A0FE
:1005F00001A001A001A001A001A001A001A001A0F3
:1006000001A001A001A001A001A001A001A001A0E2
:1006100001A001A001A001A001A0970100209381E9
:10062000E121138181FC1705000013056549970539
:1006300000209385259D17060020130626A063FA47
:10064000C5008322050023A0550011059105E3EAAA
:10065000C5FE170500201305659E938541816377CC
:10066000B500232005001105E36DB5FE93020008D7
:10067000739002308D427390428097020000938203
:10068000629893E2320073905230EFF09FDC970251
:100690000000938282D973901234730020309C45FD
:1006A000611122C226C013F7070113F3F70001C737
:1006B000D8413363E30092211377F60F29C78323D0
:1006C0000500014713048002930480048546B39516
:1006D000E600B376B6006392D50293122700BD46BA
:1006E000B396560093C6F6FFB3F37600B3125300E9
:1006F000B3E37200639787064CC90507A146E31769
:10070000D7FC232075001307F00F6378C7048323F9
:100710004500A14613048002930480040547B312E8
:10072000D700337756006394E2021397260001172F
:10073000BD45B395E50093C5F5FFB3F375003317D9
:10074000E300B363770063928702232A550085068E
:100750004147E395E6FC23227500124482442101BF
:100760008280E39C97F80CC949BFE39297FE232847
:100770005500F1BFEFF2DF92111146212A842800C3
:100780002EC04D22C246C204C18093F404FCB7457A
:100790000F00938505243685C20436C2C180EFF070
:1007A0007F93458D420541814AA01E209246C20793
:1007B000C183F99BC207C1831EA082479043E167B2
:1007C0009387076A9315160063E6C7043685EFF032
:1007D0007F90AA874205418191466373D500914776
:1007E0001395070141814AAC1E20024793E7170089
:1007F0001EA01E2056233227C207C183D18E93F735
:1008000057BFD58F1EA016275E27D58F1EA4710156
:100810006FF0BF898247EA23B167FD176310F502C5
:10082000B2953685EFF01F8B420541819317450144
:1008300099E313651500A1675D8D75B7B387C50092
:100840008E07B385C7003685EFF0DF88420541810A
:1008500091675D8DE1BF1E2189C593E717001EA139
:100860008280C207C183F99BC207C183CDBF5A21D1
:1008700089C9856793870780D98FC207C1835EA125
:100880008280FD779387F77FF98FD5BF1E2189C5B9
:1008900093E707101EA18280C207C18393F7F7EF89
:1008A000C207C183C5BF1E2189C593E707201EA1CA
:1008B0008280C207C18393F7F7DFC207C183C5BF38
:1008C0000EA9828093F7E50F19C293E71500C207BE
:1008D000C1831EA982805E290A2D42055D8D6D8D22
:1008E000220521810D8D133515008280611102C012
:1008F00002C293D7C5012AC23EC08247A205A18188
:1009000099CB9247D1073EC29247884321016D8D12
:100910003335A00082809247C181E107EDB723A65D
:10092000A1808280EFF2CFF7371702405C439146F7
:100930002A84B18B6385D700A146638DD706B7376C
:100940006E01938707601CC0B7160240DC4291839A
:1009500013F7F700B707002093878702BA978C2315
:10096000DC42184093F5F50F93F707083355B700AD
:1009700081E73A85EFF00FF648C008C448C4B717BE
:100980000240DC43AD83FD8B13D737008A07F18B20
:10099000D98F93F637010D476373D700D117370707
:1009A000002013074701BA978C23EFF0AFF208C875
:1009B0006FF0AFEF5C43B777DC02938707C061B796
:1009C00099C5371702401C4F5D8D08CF8280B7173D
:1009D0000240984F1345F5FF798D88CF828099C5E5
:1009E000371702405C4F5D8D48CF8280B7170240B9
:1009F000D84F1345F5FF798DC8CF8280EFF24FEACB
:100A0000B707002003A50701B7157A0093850520D5
:100A1000EFF04FEC1375F50F2389A1809317550064
:100A2000898F8A073E950E052398A1806FF0EFE726
:100A3000EFF20FE737F400E05C40AA85F99B5CC059
:100A400003C52181EFF00FE708C8232404001C40F0
:100A500093E717001CC0B7F700E0D843058B75DF9C
:100A60009843799B98C36FF04FE4EFF26FE337F44C
:100A700000E05C40AA85F99B5CC003D50181EFF0E2
:100A80006FE308C8232404001C4093E717001CC030
:100A9000B7F700E0D843058B75DF9843799B98C37F
:100AA0006FF0AFE00040105048454C4C4F00000044
:0C0AB00043483332563030330000000061
:100ABC0001020304050607080102030405060708E2
:100ACC00006CDC020204060804080C100810182044
:100ADC001020304020406080010203040506070806
:080AEC000102030405060708DE
:00000001FF
