:100000006F00003D000000003201000036010000DA
:1000100000000000000000000000000000000000E0
:1000200000000000000000000000000000000000D0
:10003000A401000000000000A00300000000000078
:10004000A2030000A4030000A6030000A803000010
:10005000AA030000AC030000AE030000B0030000E0
:10006000B2030000B4030000B6030000B8030000B0
:10007000BA030000BC030000BE030000C003000080
:10008000C2030000C4030000C6030000C803000050
:10009000CA030000CC030000CE03000000000000F3
:1000A000511126C022C206C4828282441244A24058
:1000B00031018280634E050263C305042E86AA8542
:1000C0007D5515C285466378B6006356C0000606A6
:1000D0008606E36CB6FE014563E4C500918D558D3F
:1000E00085820582F5FA82808682C93F2E858282CA
:1000F0003305A04063D70500B305B040C1B7B305D1
:10010000B0408682653F3305A0408282868263C705
:100110000500634905005D372E858282B305B04036
:10012000E35B05FE3305A040513F3305B0408282BA
:1001300000007300203001A0EFF29FF651118545B9
:100140001305000202C002C202C4ED2E9307000292
:100150007C8037150140C1473EC48A858D47130511
:1001600005403EC2F524310189B7EFF27FF309451E
:10017000E926C122FD26C937B7E700E0056723A0BD
:10018000E710B7F700E0D843799BD8C337376E0143
:1001900023A207001307F75F98CB23A407003D476E
:1001A00098C301A0130141FD3EC0B7F700E03AC279
:1001B000D84306D416D21AD01ECE22CC2ACA2EC8B4
:1001C00032C636C4058B15C3D84337140140930596
:1001D0000002799BD8C313050440B12613361500DD
:1001E0009305000213050440A1266244A2509252D6
:1001F0000253F2435245C2453246A2461247824755
:100200001301C10273002030B71702409843B706AC
:10021000FFFC61111367170098C3D843758FD8C3CB
:100220009843B706F7FEFD16758F98C39843B70637
:10023000FCFFFD16758F98C3D843C176FD16758FE8
:10024000D8C337079F0098C7984F1367070298CF06
:1002500037170140832607401306074093F6F6F050
:100260002320D7408326074093E606082320D74063
:10027000094718CA02C002C2984FB706014021665A
:100280001367170098CFD842518FD8C29843C166E0
:1002900037060200558F98C3B716024009679C4283
:1002A000F18F3EC2824785073EC0924781E7824771
:1002B000E397E7FEB71702409C431397E7006358A4
:1002C000070685473EC2124785476310F706B727E2
:1002D00002409843C176FD16719B98C398431367FB
:1002E000170098C3B7170240D843D8C3D843758FB7
:1002F000D8C3D843C166558FD8C39843B706000109
:10030000558F98C3984393166700E3DD06FED843E4
:10031000B7160240719BD8C3D84313672700D8C3D0
:100320002147DC42B18BE39EE7FE2101828002C2BD
:1003300059BFEFF2FFD6371702405C433704002065
:100340009146B18B130404016385D700A1466380F5
:10035000D704B7376E01938707601CC0B7160240F9
:10036000DC420840918313F7F700B707002093871A
:100370000700BA978C23DC4293F5F50F93F7070833
:100380003357B50099E31D3B2A8718C039BB5C433E
:10039000B777DC02938707C0C9B701A001A001A00D
:1003A00001A001A001A001A001A001A001A001A045
:1003B00001A001A001A001A001A001A001A001A035
:1003C00001A001A001A001A001A001A001A001A025
:1003D0009701002093818144138181FE1305C05948
:1003E00097050020938505C217060020130606C353
:1003F00063FAC5008322050023A05500110591056D
:10040000E3EAC5FE17050020130545C193858180E9
:100410006377B500232005001105E36DB5FE930257
:100420000008739002308D42739042809702000062
:10043000938242BD93E2320073905230EFF0DFDCE2
:10044000970200009382A2D273901234730020307E
:100450009C45611122C226C013F7070113F3F70070
:1004600001C7D8413363E30092211377F60F29C700
:10047000832305000147130480029304800485460A
:10048000B395E600B376B6006392D50293122700C7
:10049000BD46B396560093C6F6FFB3F37600B3128B
:1004A0005300B3E37200639787064CC90507A14662
:1004B000E317D7FC232075001307F00F6378C704F8
:1004C00083234500A146130480029304800405475A
:1004D000B312D700337756006394E20213972600D5
:1004E0000117BD45B395E50093C5F5FFB3F375005E
:1004F0003317E300B363770063928702232A550022
:1005000085064147E395E6FC2322750012448244A8
:1005100021018280E39C97F80CC949BFE39297FEC2
:1005200023285500F1BF48456D8D3335A0008280EA
:1005300019C20CC982804CC98280B707002023AC45
:10054000A700828099C5371702401C4F5D8D08CFE8
:100550008280B7170240984F1345F5FF798D88CFF9
:100560008280EFF2FFB3B707002003A50701B7159C
:100570007A009385052099361375F50FB70700208B
:10058000238FA70093175500898F8A073E950E0584
:0C059000B7070020239EA70009BE000052
:10059C000102030405060708010203040506070807
:0805AC00006CDC0200000000FD
:00000001FF
