:100000006F00404000000000320100003601000097
:1000100000000000000000000000000000000000E0
:1000200000000000000000000000000000000000D0
:10003000D203000000000000D40300000000000014
:10004000D6030000D8030000DA030000DC03000040
:10005000DE030000E0030000E2030000E403000010
:10006000E6030000E8030000EA030000EC030000E0
:10007000EE030000F0030000F2030000F4030000B0
:10008000F6030000F8030000FA030000FC03000080
:10009000FE03000000040000D20100000000000088
:1000A000511126C022C206C4828282441244A24058
:1000B00031018280634E050263C305042E86AA8542
:1000C0007D5515C285466378B6006356C0000606A6
:1000D0008606E36CB6FE014563E4C500918D558D3F
:1000E00085820582F5FA82808682C93F2E858282CA
:1000F0003305A04063D70500B305B040C1B7B305D1
:10010000B0408682653F3305A0408282868263C705
:100110000500634905005D372E858282B305B04036
:10012000E35B05FE3305A040513F3305B0408282BA
:1001300000007300203001A0EFF29FF651118545B9
:100140001305000202C002C202C4E12993070002A3
:100150007C8037150140C1473EC48A858D47130511
:1001600005403EC20526310189B7EFF27FF3311118
:100170002E84AA8485450545E1212C0037050040E1
:10018000648660842315010023170100C9290546F0
:100190008545370500403D23930760027C808547F5
:1001A0005C810A8585473EC2C12E854537050040E2
:1001B000F5295101DDBDEFF2BFEE09454D2E652257
:1001C0002D2B9D3FB1659385F5B71305301F713F0A
:1001D00001A0130141FD2ACA2EC8370500408545FC
:1001E0003EC006D416D21AD01ECE22CC32C636C499
:1001F0003AC2D52185476314F502371401409305AF
:10020000000213050440912E1336150093050002D9
:1002100013050440812E854537050040C9296244F5
:10022000A25092520253F2435245C2453246A24670
:10023000124782471301C10273002030B7170240F2
:100240009843B706FFFC61111367170098C3D843A2
:10025000758FD8C39843B706F7FEFD16758F98C300
:100260009843B706FCFFFD16758F98C3D843C17637
:10027000FD16758FD8C337079F0098C7984F13672F
:10028000070298CF3717014083260740130607401F
:1002900093F6F6F02320D7408326074093E606081E
:1002A0002320D740094718CA02C002C2984FB70698
:1002B000014021661367170098CFD842518FD8C2EA
:1002C0009843C16637060200558F98C3B71602409F
:1002D00009679C42F18F3EC2824785073EC0924724
:1002E00081E78247E397E7FEB71702409C431397E5
:1002F000E7006358070685473EC2124785476310EB
:10030000F706B72702409843C176FD16719B98C344
:1003100098431367170098C3B7170240D843D8C350
:10032000D843758FD8C3D843C166558FD8C3984377
:10033000B7060001558F98C3984393166700E3DD15
:1003400006FED843B7160240719BD8C3D843136743
:100350002700D8C32147DC42B18BE39EE7FE210191
:10036000828002C259BFEFF2BFD3371702405C430D
:10037000370400209146B18B130404016385D70034
:10038000A1466380D704B7376E01938707601CC00E
:10039000B7160240DC420840918313F7F700B70715
:1003A000002093870700BA978C23DC4293F5F50F62
:1003B00093F707083357B50099E309332A8718C024
:1003C000EDB15C43B777DC02938707C0C9B701A0E2
:1003D00001A001A001A001A001A001A001A001A015
:1003E00001A001A001A001A001A001A001A001A005
:1003F00001A001A001A001A001A001A001A001A0F5
:1004000001A001A09701002093814141138181FE49
:1004100013054073970500209385C5BE170600207D
:100420001306C6BF63FAC5008322050023A055004A
:1004300011059105E3EAC5FE17050020130505BE69
:10044000938581806377B500232005001105E36D56
:10045000B5FE93020008739002308D427390428083
:1004600097020000938202BA93E2320073905230F6
:10047000EFF0DFDC97020000938222D473901234F5
:10048000730020309C45611122C226C013F707017A
:1004900013F3F70001C7D8413363E30092211377C8
:1004A000F60F29C783230500014713048002930434
:1004B00080048546B395E600B376B6006392D50214
:1004C00093122700BD46B396560093C6F6FFB3F3CA
:1004D0007600B3125300B3E37200639787064CC9EA
:1004E0000507A146E317D7FC232075001307F00F7B
:1004F0006378C70483234500A14613048002930454
:1005000080040547B312D700337756006394E202A4
:10051000139726000117BD45B395E50093C5F5FF78
:10052000B3F375003317E300B36377006392870278
:10053000232A550085064147E395E6FC23227500F2
:100540001244824421018280E39C97F80CC949BF80
:10055000E39297FE23285500F1BF48456D8D333552
:10056000A000828019C20CC982804CC98280B70762
:10057000002023ACA7008280B70700209387870163
:100580009443182181E63C21920721A89443054613
:10059000639FC6023C21103192076314D60093E793
:1005A00007F8B7E600E093F7F70FBA962380F64016
:1005B0008546935757003397E6005441A5C2938769
:1005C00007048A07B7E600E0B69798C382808C4399
:1005D00089466391D50214313C216365D6008A06B1
:1005E000B6975DB79386E6038A06B69793F7F70F3B
:1005F000920775B790438D46631CD60014313C2199
:100600006364D6008606E9BF9386C6078606F1BFF7
:1006100094439147E39EF6F81C31BDB793870706D4
:100620004DB799C5371702401C4F5D8D08CF8280AA
:10063000B7170240984F1345F5FF798D88CF828018
:1006400099C5371702405C4F5D8D48CF8280B71740
:100650000240D84F1345F5FF798DC8CF82801E2107
:1006600037370140130707C0C207C1836306E5009F
:10067000370700406316E500BA2193F7F7F8D98FE2
:10068000FA2193F7F7CFC207C183D98F1EA1DE21CC
:100690005EB59E211EB5B7370140938707C063142E
:1006A000F5009C251EB985475EA982801E2189C55B
:1006B00093E717001EA18280C207C183F99BC2077E
:1006C000C183CDBF5E2501C6DD8D4EA5828093C559
:1006D000F5FFFD8DDDBF1E294A25ED8F42054181C5
:1006E00089C76D8D3335A00082800145828093C516
:1006F000F5FFC205C1810EA98280EFF27F9AB7078C
:10070000002003A50701B7157A00938505207D32E7
:100710001375F50FB7070020238FA7009317550017
:10072000898F8A073E950E05B7070020239EA700F4
:04073000ADBA00005E
:10073400010203040506070801020304050607086D
:08074400006CDC020000000063
:00000001FF
